{
  "abi": [
    {
      "anonymous": false,
      "inputs": [
        {
          "indexed": true,
          "internalType": "address",
          "name": "campaignAddress",
          "type": "address"
        },
        {
          "indexed": false,
          "internalType": "string",
          "name": "name",
          "type": "string"
        }
      ],
      "name": "CampaignAdded",
      "type": "event"
    },
    {
      "inputs": [
        {
          "internalType": "string",
          "name": "name",
          "type": "string"
        },
        {
          "internalType": "string",
          "name": "emailSubject",
          "type": "string"
        },
        {
          "internalType": "string",
          "name": "emailContent",
          "type": "string"
        },
        {
          "internalType": "string",
          "name": "topic",
          "type": "string"
        }
      ],
      "name": "addCampaign",
      "outputs": [],
      "stateMutability": "nonpayable",
      "type": "function"
    },
    {
      "inputs": [
        {
          "internalType": "address",
          "name": "campaignAddress",
          "type": "address"
        }
      ],
      "name": "getCampaignInfoByAddress",
      "outputs": [
        {
          "internalType": "string",
          "name": "name",
          "type": "string"
        },
        {
          "internalType": "string",
          "name": "emailSubject",
          "type": "string"
        },
        {
          "internalType": "string",
          "name": "emailContent",
          "type": "string"
        },
        {
          "internalType": "string",
          "name": "topic",
          "type": "string"
        }
      ],
      "stateMutability": "view",
      "type": "function"
    }
  ],
  "bytecode": {
    "object": "0x608060405234801561001057600080fd5b50610853806100206000396000f3fe608060405234801561001057600080fd5b50600436106100365760003560e01c806358e8d9921461003b578063ec67148614610067575b600080fd5b61004e6100493660046104a3565b61007c565b60405161005e9493929190610519565b60405180910390f35b61007a610075366004610614565b610376565b005b606080606080846000806000836001600160a01b03166001600160a01b0316815260200190815260200160002060000180546100b7906106c1565b90501161010b5760405162461bcd60e51b815260206004820152601760248201527f43616d706169676e20646f6573206e6f7420657869737400000000000000000060448201526064015b60405180910390fd5b6001600160a01b0386166000908152602081905260409020805481906001820190600283019060038401908490610141906106c1565b80601f016020809104026020016040519081016040528092919081815260200182805461016d906106c1565b80156101ba5780601f1061018f576101008083540402835291602001916101ba565b820191906000526020600020905b81548152906001019060200180831161019d57829003601f168201915b505050505093508280546101cd906106c1565b80601f01602080910402602001604051908101604052809291908181526020018280546101f9906106c1565b80156102465780601f1061021b57610100808354040283529160200191610246565b820191906000526020600020905b81548152906001019060200180831161022957829003601f168201915b50505050509250818054610259906106c1565b80601f0160208091040260200160405190810160405280929190818152602001828054610285906106c1565b80156102d25780601f106102a7576101008083540402835291602001916102d2565b820191906000526020600020905b8154815290600101906020018083116102b557829003601f168201915b505050505091508080546102e5906106c1565b80601f0160208091040260200160405190810160405280929190818152602001828054610311906106c1565b801561035e5780601f106103335761010080835404028352916020019161035e565b820191906000526020600020905b81548152906001019060200180831161034157829003601f168201915b50505050509050955095509550955050509193509193565b3360009081526020819052604090208054610390906106c1565b1590506103df5760405162461bcd60e51b815260206004820152601760248201527f43616d706169676e20616c7265616479206578697374730000000000000000006044820152606401610102565b60408051608081018252858152602080820186905281830185905260608201849052336000908152908190529190912081518291908190610420908261074a565b5060208201516001820190610435908261074a565b506040820151600282019061044a908261074a565b506060820151600382019061045f908261074a565b50506040513391507ff82064aba9681a9763ea778daa9209046f4a90088a40e725e8a7b859421bded49061049490889061080a565b60405180910390a25050505050565b6000602082840312156104b557600080fd5b81356001600160a01b03811681146104cc57600080fd5b9392505050565b6000815180845260005b818110156104f9576020818501810151868301820152016104dd565b506000602082860101526020601f19601f83011685010191505092915050565b60808152600061052c60808301876104d3565b828103602084015261053e81876104d3565b9050828103604084015261055281866104d3565b9050828103606084015261056681856104d3565b979650505050505050565b634e487b7160e01b600052604160045260246000fd5b600082601f83011261059857600080fd5b813567ffffffffffffffff808211156105b3576105b3610571565b604051601f8301601f19908116603f011681019082821181831017156105db576105db610571565b816040528381528660208588010111156105f457600080fd5b836020870160208301376000602085830101528094505050505092915050565b6000806000806080858703121561062a57600080fd5b843567ffffffffffffffff8082111561064257600080fd5b61064e88838901610587565b9550602087013591508082111561066457600080fd5b61067088838901610587565b9450604087013591508082111561068657600080fd5b61069288838901610587565b935060608701359150808211156106a857600080fd5b506106b587828801610587565b91505092959194509250565b600181811c908216806106d557607f821691505b6020821081036106f557634e487b7160e01b600052602260045260246000fd5b50919050565b601f82111561074557600081815260208120601f850160051c810160208610156107225750805b601f850160051c820191505b818110156107415782815560010161072e565b5050505b505050565b815167ffffffffffffffff81111561076457610764610571565b6107788161077284546106c1565b846106fb565b602080601f8311600181146107ad57600084156107955750858301515b600019600386901b1c1916600185901b178555610741565b600085815260208120601f198616915b828110156107dc578886015182559484019460019091019084016107bd565b50858210156107fa5787850151600019600388901b60f8161c191681555b5050505050600190811b01905550565b6020815260006104cc60208301846104d356fea26469706673582212205756c8d557ca7c58d143bf084560c42f01f12830ddc26968348abf74004daa8964736f6c63430008140033",
    "linkReferences": {}
  },
  "methodIdentifiers": {
    "addCampaign(string,string,string,string)": "ec671486",
    "getCampaignInfoByAddress(address)": "58e8d992"
  },
  "id": 0
}